{
  "address": "0xffDb658aFB86d3859B634Bad8f3e4aAFb1946278",
  "abi": [
    {
      "inputs": [
        {
          "internalType": "contract IConfig",
          "name": "_config",
          "type": "address"
        }
      ],
      "stateMutability": "nonpayable",
      "type": "constructor"
    },
    {
      "anonymous": false,
      "inputs": [
        {
          "indexed": false,
          "internalType": "address",
          "name": "from",
          "type": "address"
        },
        {
          "indexed": false,
          "internalType": "address",
          "name": "to",
          "type": "address"
        },
        {
          "indexed": false,
          "internalType": "uint256",
          "name": "amount",
          "type": "uint256"
        },
        {
          "indexed": false,
          "internalType": "uint256",
          "name": "reward",
          "type": "uint256"
        }
      ],
      "name": "AcceptedShare2Earn",
      "type": "event"
    },
    {
      "anonymous": false,
      "inputs": [
        {
          "indexed": false,
          "internalType": "address",
          "name": "previousAdmin",
          "type": "address"
        },
        {
          "indexed": false,
          "internalType": "address",
          "name": "newAdmin",
          "type": "address"
        }
      ],
      "name": "AdminChanged",
      "type": "event"
    },
    {
      "anonymous": false,
      "inputs": [
        {
          "indexed": true,
          "internalType": "address",
          "name": "beacon",
          "type": "address"
        }
      ],
      "name": "BeaconUpgraded",
      "type": "event"
    },
    {
      "anonymous": false,
      "inputs": [
        {
          "indexed": false,
          "internalType": "address",
          "name": "to",
          "type": "address"
        },
        {
          "indexed": false,
          "internalType": "uint256",
          "name": "amount",
          "type": "uint256"
        },
        {
          "indexed": false,
          "internalType": "uint256",
          "name": "price",
          "type": "uint256"
        }
      ],
      "name": "BuyMFC",
      "type": "event"
    },
    {
      "anonymous": false,
      "inputs": [
        {
          "indexed": false,
          "internalType": "address",
          "name": "to",
          "type": "address"
        },
        {
          "indexed": false,
          "internalType": "uint256",
          "name": "amount",
          "type": "uint256"
        }
      ],
      "name": "EarnMFC",
      "type": "event"
    },
    {
      "anonymous": false,
      "inputs": [
        {
          "indexed": false,
          "internalType": "uint8",
          "name": "version",
          "type": "uint8"
        }
      ],
      "name": "Initialized",
      "type": "event"
    },
    {
      "anonymous": false,
      "inputs": [
        {
          "indexed": true,
          "internalType": "address",
          "name": "implementation",
          "type": "address"
        }
      ],
      "name": "Upgraded",
      "type": "event"
    },
    {
      "inputs": [],
      "name": "_USER_EARN_MINT_TX_TYPEHASH",
      "outputs": [
        {
          "internalType": "bytes32",
          "name": "",
          "type": "bytes32"
        }
      ],
      "stateMutability": "view",
      "type": "function"
    },
    {
      "inputs": [],
      "name": "acceptedToken",
      "outputs": [
        {
          "internalType": "contract IERC20",
          "name": "",
          "type": "address"
        }
      ],
      "stateMutability": "view",
      "type": "function"
    },
    {
      "inputs": [
        {
          "internalType": "address",
          "name": "to",
          "type": "address"
        },
        {
          "internalType": "uint256",
          "name": "amount",
          "type": "uint256"
        },
        {
          "internalType": "uint256",
          "name": "maxPrice",
          "type": "uint256"
        }
      ],
      "name": "buy",
      "outputs": [],
      "stateMutability": "nonpayable",
      "type": "function"
    },
    {
      "inputs": [
        {
          "internalType": "address",
          "name": "from",
          "type": "address"
        },
        {
          "internalType": "address",
          "name": "to",
          "type": "address"
        },
        {
          "internalType": "uint256",
          "name": "amount",
          "type": "uint256"
        }
      ],
      "name": "computeShare2EarnReward",
      "outputs": [
        {
          "internalType": "uint256",
          "name": "",
          "type": "uint256"
        }
      ],
      "stateMutability": "view",
      "type": "function"
    },
    {
      "inputs": [],
      "name": "config",
      "outputs": [
        {
          "internalType": "contract IConfig",
          "name": "",
          "type": "address"
        }
      ],
      "stateMutability": "view",
      "type": "function"
    },
    {
      "inputs": [
        {
          "components": [
            {
              "internalType": "uint256",
              "name": "tgId",
              "type": "uint256"
            },
            {
              "internalType": "address",
              "name": "user",
              "type": "address"
            },
            {
              "internalType": "uint256",
              "name": "earnTotal",
              "type": "uint256"
            }
          ],
          "internalType": "struct ILauncher.UserEarn",
          "name": "ue",
          "type": "tuple"
        },
        {
          "internalType": "bytes",
          "name": "signature",
          "type": "bytes"
        }
      ],
      "name": "earnMint",
      "outputs": [],
      "stateMutability": "nonpayable",
      "type": "function"
    },
    {
      "inputs": [
        {
          "components": [
            {
              "internalType": "uint256",
              "name": "tgId",
              "type": "uint256"
            },
            {
              "internalType": "address",
              "name": "user",
              "type": "address"
            },
            {
              "internalType": "uint256",
              "name": "earnTotal",
              "type": "uint256"
            }
          ],
          "internalType": "struct ILauncher.UserEarn",
          "name": "ue",
          "type": "tuple"
        }
      ],
      "name": "getEarnClaimable",
      "outputs": [
        {
          "internalType": "uint256",
          "name": "",
          "type": "uint256"
        }
      ],
      "stateMutability": "view",
      "type": "function"
    },
    {
      "inputs": [],
      "name": "getInitializedVersion",
      "outputs": [
        {
          "internalType": "uint8",
          "name": "",
          "type": "uint8"
        }
      ],
      "stateMutability": "view",
      "type": "function"
    },
    {
      "inputs": [],
      "name": "getMaxHoldeAmount",
      "outputs": [
        {
          "internalType": "uint256",
          "name": "",
          "type": "uint256"
        }
      ],
      "stateMutability": "pure",
      "type": "function"
    },
    {
      "inputs": [
        {
          "internalType": "uint256",
          "name": "supply",
          "type": "uint256"
        },
        {
          "internalType": "uint256",
          "name": "amount",
          "type": "uint256"
        }
      ],
      "name": "getPrice",
      "outputs": [
        {
          "internalType": "uint256",
          "name": "",
          "type": "uint256"
        }
      ],
      "stateMutability": "pure",
      "type": "function"
    },
    {
      "inputs": [
        {
          "internalType": "uint256",
          "name": "amount",
          "type": "uint256"
        }
      ],
      "name": "getPrice",
      "outputs": [
        {
          "internalType": "uint256",
          "name": "",
          "type": "uint256"
        }
      ],
      "stateMutability": "view",
      "type": "function"
    },
    {
      "inputs": [
        {
          "internalType": "address",
          "name": "to",
          "type": "address"
        }
      ],
      "name": "getRemainBuyAmount",
      "outputs": [
        {
          "internalType": "uint256",
          "name": "",
          "type": "uint256"
        }
      ],
      "stateMutability": "view",
      "type": "function"
    },
    {
      "inputs": [
        {
          "internalType": "uint256",
          "name": "tgId",
          "type": "uint256"
        }
      ],
      "name": "getRemainEarnAmount",
      "outputs": [
        {
          "internalType": "uint256",
          "name": "",
          "type": "uint256"
        }
      ],
      "stateMutability": "view",
      "type": "function"
    },
    {
      "inputs": [],
      "name": "getRemainSharePoolAmount",
      "outputs": [
        {
          "internalType": "uint256",
          "name": "",
          "type": "uint256"
        }
      ],
      "stateMutability": "view",
      "type": "function"
    },
    {
      "inputs": [
        {
          "internalType": "address",
          "name": "shareId",
          "type": "address"
        }
      ],
      "name": "getShare2MultiplyAmount",
      "outputs": [
        {
          "internalType": "uint256",
          "name": "",
          "type": "uint256"
        }
      ],
      "stateMutability": "view",
      "type": "function"
    },
    {
      "inputs": [
        {
          "internalType": "address",
          "name": "shareId",
          "type": "address"
        }
      ],
      "name": "getTribeShare2MultiplyRemainTimes",
      "outputs": [
        {
          "internalType": "uint256",
          "name": "",
          "type": "uint256"
        }
      ],
      "stateMutability": "view",
      "type": "function"
    },
    {
      "inputs": [
        {
          "internalType": "address",
          "name": "_operator",
          "type": "address"
        },
        {
          "internalType": "contract IMakeFriendCoin",
          "name": "_mfc",
          "type": "address"
        },
        {
          "internalType": "contract IERC20",
          "name": "_acceptedToken",
          "type": "address"
        }
      ],
      "name": "initialize",
      "outputs": [],
      "stateMutability": "nonpayable",
      "type": "function"
    },
    {
      "inputs": [
        {
          "internalType": "address",
          "name": "shareId",
          "type": "address"
        }
      ],
      "name": "isAuthorized",
      "outputs": [
        {
          "internalType": "bool",
          "name": "",
          "type": "bool"
        }
      ],
      "stateMutability": "view",
      "type": "function"
    },
    {
      "inputs": [
        {
          "internalType": "address",
          "name": "account",
          "type": "address"
        }
      ],
      "name": "isBlackList",
      "outputs": [
        {
          "internalType": "bool",
          "name": "",
          "type": "bool"
        }
      ],
      "stateMutability": "view",
      "type": "function"
    },
    {
      "inputs": [],
      "name": "launchDone",
      "outputs": [
        {
          "internalType": "bool",
          "name": "",
          "type": "bool"
        }
      ],
      "stateMutability": "view",
      "type": "function"
    },
    {
      "inputs": [],
      "name": "maxBuyAmount",
      "outputs": [
        {
          "internalType": "uint256",
          "name": "",
          "type": "uint256"
        }
      ],
      "stateMutability": "view",
      "type": "function"
    },
    {
      "inputs": [],
      "name": "maxEarnAmount",
      "outputs": [
        {
          "internalType": "uint256",
          "name": "",
          "type": "uint256"
        }
      ],
      "stateMutability": "view",
      "type": "function"
    },
    {
      "inputs": [],
      "name": "mfc",
      "outputs": [
        {
          "internalType": "contract IMakeFriendCoin",
          "name": "",
          "type": "address"
        }
      ],
      "stateMutability": "view",
      "type": "function"
    },
    {
      "inputs": [],
      "name": "operator",
      "outputs": [
        {
          "internalType": "address",
          "name": "",
          "type": "address"
        }
      ],
      "stateMutability": "view",
      "type": "function"
    },
    {
      "inputs": [],
      "name": "proxiableUUID",
      "outputs": [
        {
          "internalType": "bytes32",
          "name": "",
          "type": "bytes32"
        }
      ],
      "stateMutability": "view",
      "type": "function"
    },
    {
      "inputs": [],
      "name": "remainBuyAmount",
      "outputs": [
        {
          "internalType": "uint256",
          "name": "",
          "type": "uint256"
        }
      ],
      "stateMutability": "view",
      "type": "function"
    },
    {
      "inputs": [],
      "name": "remainSharePoolAmount",
      "outputs": [
        {
          "internalType": "uint256",
          "name": "",
          "type": "uint256"
        }
      ],
      "stateMutability": "view",
      "type": "function"
    },
    {
      "inputs": [
        {
          "internalType": "address",
          "name": "account",
          "type": "address"
        },
        {
          "internalType": "bool",
          "name": "isBlack",
          "type": "bool"
        }
      ],
      "name": "setBlackList",
      "outputs": [],
      "stateMutability": "nonpayable",
      "type": "function"
    },
    {
      "inputs": [
        {
          "internalType": "address",
          "name": "operator_",
          "type": "address"
        }
      ],
      "name": "setOperator",
      "outputs": [],
      "stateMutability": "nonpayable",
      "type": "function"
    },
    {
      "inputs": [
        {
          "internalType": "address",
          "name": "from",
          "type": "address"
        },
        {
          "internalType": "address",
          "name": "to",
          "type": "address"
        },
        {
          "internalType": "uint256",
          "name": "amount",
          "type": "uint256"
        },
        {
          "internalType": "uint256",
          "name": "rewardAmoumt",
          "type": "uint256"
        }
      ],
      "name": "subShare2MultiplyAmount",
      "outputs": [],
      "stateMutability": "nonpayable",
      "type": "function"
    },
    {
      "inputs": [
        {
          "internalType": "address",
          "name": "newImplementation",
          "type": "address"
        }
      ],
      "name": "upgradeTo",
      "outputs": [],
      "stateMutability": "nonpayable",
      "type": "function"
    },
    {
      "inputs": [
        {
          "internalType": "address",
          "name": "newImplementation",
          "type": "address"
        },
        {
          "internalType": "bytes",
          "name": "data",
          "type": "bytes"
        }
      ],
      "name": "upgradeToAndCall",
      "outputs": [],
      "stateMutability": "payable",
      "type": "function"
    },
    {
      "inputs": [],
      "name": "withdrawLPToken",
      "outputs": [],
      "stateMutability": "nonpayable",
      "type": "function"
    }
  ],
  "transactionHash": "0x8b0a88cfcbc108d87b4219c47961b50b6788860fe85520c11263fd2d19f7295c",
  "args": [
    "0x25c0f2085377F4705667a2cDD31aa59f87de21b3"
  ],
  "numDeployments": 1,
  "solcInputHash": "780fcab07699c44a3e2dfc1271e6c648",
  "bytecode": "0x60c0604052306080523480156200001557600080fd5b50604051620028ae380380620028ae83398101604081905262000038916200004a565b6001600160a01b031660a0526200007c565b6000602082840312156200005d57600080fd5b81516001600160a01b03811681146200007557600080fd5b9392505050565b60805160a0516127c6620000e8600039600081816103f901528181610ca801528181610dcd015281816112a3015281816114f90152818161173f0152611839015260008181610682015281816106cb015281816107a5015281816107e5015261098c01526127c66000f3fe6080604052600436106101ee5760003560e01c806379502c551161010d578063b94166a4116100a0578063d4939c201161006f578063d4939c2014610591578063e7572230146105b1578063f784443e146105d1578063fc5d58a714610607578063fe9fbb801461062757600080fd5b8063b94166a414610507578063c0c53b8b14610527578063c1dca20514610547578063c7a74a731461057b57600080fd5b8063a59ac6dd116100dc578063a59ac6dd1461045c578063b36d69191461047c578063b3ab15fb146104c5578063b3c65015146104e557600080fd5b806379502c55146103e757806388e765ff1461041b5780638cf3453214610431578063911bb3f71461044757600080fd5b8063514ebb07116101855780635a7263d3116101545780635a7263d3146103695780635cf4ee911461038957806368092bd9146103a957806371d922a3146103c957600080fd5b8063514ebb07146102fe57806352d1902d14610314578063570ca73514610329578063590e6d461461034957600080fd5b8063451c3d80116101c1578063451c3d80146102735780634a745819146102ab5780634f1ef286146102cb5780634ff1b907146102de57600080fd5b806319d53083146101f357806330e4d6c81461021c5780633659cfe61461023c5780633f1f0a2a1461025e575b600080fd5b3480156101ff57600080fd5b50610209606f5481565b6040519081526020015b60405180910390f35b34801561022857600080fd5b5061020961023736600461219f565b610647565b34801561024857600080fd5b5061025c61025736600461219f565b610678565b005b34801561026a57600080fd5b50606e54610209565b34801561027f57600080fd5b50606754610293906001600160a01b031681565b6040516001600160a01b039091168152602001610213565b3480156102b757600080fd5b506102096102c636600461219f565b610760565b61025c6102d936600461225f565b61079b565b3480156102ea57600080fd5b5061025c6102f93660046122af565b61086b565b34801561030a57600080fd5b50610209606e5481565b34801561032057600080fd5b5061020961097f565b34801561033557600080fd5b50606554610293906001600160a01b031681565b34801561035557600080fd5b506102096103643660046122f5565b610a32565b34801561037557600080fd5b5061025c610384366004612371565b610a59565b34801561039557600080fd5b506102096103a43660046123aa565b610bf9565b3480156103b557600080fd5b5061025c6103c43660046123da565b610c9c565b3480156103d557600080fd5b506a034f086f3b33b684000000610209565b3480156103f357600080fd5b506102937f000000000000000000000000000000000000000000000000000000000000000081565b34801561042757600080fd5b5061020960705481565b34801561043d57600080fd5b5061020960715481565b34801561045357600080fd5b5061025c610d79565b34801561046857600080fd5b5061025c610477366004612413565b610fa8565b34801561048857600080fd5b506104b561049736600461219f565b6001600160a01b031660009081526068602052604090205460ff1690565b6040519015158152602001610213565b3480156104d157600080fd5b5061025c6104e036600461219f565b611297565b3480156104f157600080fd5b5060005460405160ff9091168152602001610213565b34801561051357600080fd5b50606654610293906001600160a01b031681565b34801561053357600080fd5b5061025c610542366004612448565b61136b565b34801561055357600080fd5b506102097f5db6ea67062bf5a92c06624857425d79b537112afc6ca7b8695861bfafcc9dae81565b34801561058757600080fd5b50606f54156104b5565b34801561059d57600080fd5b506102096105ac366004612493565b6114f4565b3480156105bd57600080fd5b506102096105cc3660046122f5565b6116dd565b3480156105dd57600080fd5b506102096105ec36600461219f565b6001600160a01b031660009081526069602052604090205490565b34801561061357600080fd5b506102096106223660046124d4565b611706565b34801561063357600080fd5b506104b561064236600461219f565b61173a565b6001600160a01b0381166000908152606a602052604081205460ff161561067057506000919050565b506001919050565b6001600160a01b037f00000000000000000000000000000000000000000000000000000000000000001630036106c95760405162461bcd60e51b81526004016106c0906124f0565b60405180910390fd5b7f00000000000000000000000000000000000000000000000000000000000000006001600160a01b031661071260008051602061274a833981519152546001600160a01b031690565b6001600160a01b0316146107385760405162461bcd60e51b81526004016106c09061253c565b6107418161182d565b6040805160008082526020820190925261075d918391906118df565b50565b606f546001600160a01b0382166000908152606b602052604081205460705491926107959290916107909161259e565b611a4f565b92915050565b6001600160a01b037f00000000000000000000000000000000000000000000000000000000000000001630036107e35760405162461bcd60e51b81526004016106c0906124f0565b7f00000000000000000000000000000000000000000000000000000000000000006001600160a01b031661082c60008051602061274a833981519152546001600160a01b031690565b6001600160a01b0316146108525760405162461bcd60e51b81526004016106c09061253c565b61085b8261182d565b610867828260016118df565b5050565b6066546001600160a01b031633146108c55760405162461bcd60e51b815260206004820152601f60248201527f4c61756e636865723a2063616c6c6572206973206e6f7420746865206d66630060448201526064016106c0565b6001600160a01b038084166000908152606a60209081526040808320805460ff19166001179055928716825260699052908120805484929061090890849061259e565b9250508190555081606e6000828254610921919061259e565b9091555050604080516001600160a01b03808716825285166020820152908101839052606081018290527f92b5b82cebb2ce4a024a31c86011d2eb0b69be46ec142d29a4c6aefc775042d7906080015b60405180910390a150505050565b6000306001600160a01b037f00000000000000000000000000000000000000000000000000000000000000001614610a1f5760405162461bcd60e51b815260206004820152603860248201527f555550535570677261646561626c653a206d757374206e6f742062652063616c60448201527f6c6564207468726f7567682064656c656761746563616c6c000000000000000060648201526084016106c0565b5060008051602061274a83398151915290565b6000818152606c602052604081205460715461079591610a519161259e565b606e54611a4f565b6000610a6483611a65565b606554909150610a7e906001600160a01b03168284611adb565b610aca5760405162461bcd60e51b815260206004820152601b60248201527f4c61756e636865723a20696e76616c6964207369676e6174757265000000000060448201526064016106c0565b6000610ad584611706565b84516000908152606c6020526040812080549293508392909190610afa9084906125b1565b9250508190555080606e6000828254610b13919061259e565b90915550506020808501516001600160a01b031660009081526069909152604081208054839290610b459084906125b1565b909155505060665460208501516040516340c10f1960e01b81526001600160a01b039182166004820152602481018490529116906340c10f1990604401600060405180830381600087803b158015610b9c57600080fd5b505af1158015610bb0573d6000803e3d6000fd5b505050602080860151604080516001600160a01b0390921682529181018490527f653bd29780e9cdbb5c5d91c6d92f2871fb74f80e81a6b3636d58d431ee6a8172925001610971565b6000806d04ee2d6d415b85acef81000000008415610c2057610c1d8561c3506125c4565b91505b6000610c2c85876125b1565b610c3e90670de0b6b3a76400006125b1565b610c4a9061c3506125c4565b9050610c92610c5986846125c4565b610c6e610c6686856125b1565b886002611b32565b610c7891906125b1565b73af298d050e4395d69670b12b7f41000000000000611c1c565b9695505050505050565b336001600160a01b03167f00000000000000000000000000000000000000000000000000000000000000006001600160a01b0316638da5cb5b6040518163ffffffff1660e01b8152600401602060405180830381865afa158015610d04573d6000803e3d6000fd5b505050506040513d601f19601f82011682018060405250810190610d2891906125db565b6001600160a01b031614610d4e5760405162461bcd60e51b81526004016106c0906125f8565b6001600160a01b03919091166000908152606860205260409020805460ff1916911515919091179055565b606f5415610dc95760405162461bcd60e51b815260206004820152601960248201527f4c61756e636865723a206c61756e6368206e6f7420646f6e650000000000000060448201526064016106c0565b60007f00000000000000000000000000000000000000000000000000000000000000006001600160a01b0316638da5cb5b6040518163ffffffff1660e01b8152600401602060405180830381865afa158015610e29573d6000803e3d6000fd5b505050506040513d601f19601f82011682018060405250810190610e4d91906125db565b6067546040516370a0823160e01b81523060048201529192506001600160a01b03169063a9059cbb90839083906370a0823190602401602060405180830381865afa158015610ea0573d6000803e3d6000fd5b505050506040513d601f19601f82011682018060405250810190610ec4919061262d565b6040516001600160e01b031960e085901b1681526001600160a01b03909216600483015260248201526044016020604051808303816000875af1158015610f0f573d6000803e3d6000fd5b505050506040513d601f19601f82011682018060405250810190610f339190612646565b506066546040516340c10f1960e01b81526001600160a01b0383811660048301526b1027e72f1f128130880000006024830152909116906340c10f1990604401600060405180830381600087803b158015610f8d57600080fd5b505af1158015610fa1573d6000803e3d6000fd5b5050505050565b6000606f5411610ffa5760405162461bcd60e51b815260206004820152601c60248201527f4c61756e636865723a2062757920616d6f756e74206973207a65726f0000000060448201526064016106c0565b61100383610760565b8211156110665760405162461bcd60e51b815260206004820152602b60248201527f4c61756e636865723a2062757920616d6f756e742065786365656473206d617860448201526a08189d5e48185b5bdd5b9d60aa1b60648201526084016106c0565b6000611071836116dd565b9050818111156110cd5760405162461bcd60e51b815260206004820152602160248201527f4c61756e636865723a2070726963652065786365656473206d617820707269636044820152606560f81b60648201526084016106c0565b6067546040516323b872dd60e01b8152336004820152306024820152604481018390526001600160a01b03909116906323b872dd906064016020604051808303816000875af1158015611124573d6000803e3d6000fd5b505050506040513d601f19601f820116820180604052508101906111489190612646565b506001600160a01b0384166000908152606d6020526040812080548392906111719084906125b1565b90915550506001600160a01b0384166000908152606b60205260408120805485929061119e9084906125b1565b90915550506001600160a01b038416600090815260696020526040812080548592906111cb9084906125b1565b9250508190555082606f60008282546111e4919061259e565b90915550506066546040516340c10f1960e01b81526001600160a01b03868116600483015260248201869052909116906340c10f1990604401600060405180830381600087803b15801561123757600080fd5b505af115801561124b573d6000803e3d6000fd5b5050604080516001600160a01b0388168152602081018790529081018490527fa5a357d660ba1291211756eaea6aafb9f741befd33ba80909fc80170e0036a8892506060019050610971565b336001600160a01b03167f00000000000000000000000000000000000000000000000000000000000000006001600160a01b0316638da5cb5b6040518163ffffffff1660e01b8152600401602060405180830381865afa1580156112ff573d6000803e3d6000fd5b505050506040513d601f19601f8201168201806040525081019061132391906125db565b6001600160a01b0316146113495760405162461bcd60e51b81526004016106c0906125f8565b606580546001600160a01b0319166001600160a01b0392909216919091179055565b600054610100900460ff161580801561138b5750600054600160ff909116105b806113a55750303b1580156113a5575060005460ff166001145b6114085760405162461bcd60e51b815260206004820152602e60248201527f496e697469616c697a61626c653a20636f6e747261637420697320616c72656160448201526d191e481a5b9a5d1a585b1a5e995960921b60648201526084016106c0565b6000805460ff19166001179055801561142b576000805461ff0019166101001790555b611433611c53565b606580546001600160a01b038087166001600160a01b0319928316179092556b204fce5e3e25026110000000606e556b1027e72f1f12813088000000606f5569d3c21bcecceda100000060705569cb49b44ba602d800000060715560668054868416908316179055606780549285169290911691909117905580156114ee576000805461ff0019169055604051600181527f7f26b83ff96e1f2b6a682f133852f6798a09c465da95921460cefb384740249890602001610971565b50505050565b6000807f00000000000000000000000000000000000000000000000000000000000000006001600160a01b031663d73fe0aa6040518163ffffffff1660e01b8152600401602060405180830381865afa158015611555573d6000803e3d6000fd5b505050506040513d601f19601f8201168201806040525081019061157991906125db565b604051631c66e80d60e21b81526001600160a01b03878116600483015260006024830181905292935083169063719ba03490604401602060405180830381865afa1580156115cb573d6000803e3d6000fd5b505050506040513d601f19601f820116820180604052508101906115ef919061262d565b604051631c66e80d60e21b81526001600160a01b03878116600483015260006024830181905292935084169063719ba03490604401602060405180830381865afa158015611641573d6000803e3d6000fd5b505050506040513d601f19601f82011682018060405250810190611665919061262d565b9050600282111561167e5761167b60028361259e565b91505b60028111156116955761169260028261259e565b90505b60006116b7866116a68460026125c4565b6116b090866125b1565b600a611b32565b6116c190876125b1565b90506116cf81606e54611a4f565b9450505050505b9392505050565b600080606f546b1027e72f1f128130880000006116fa919061259e565b90506116d68184610bf9565b6000806116d66117198460000151610a32565b84516000908152606c6020526040908190205490860151610790919061259e565b6000807f00000000000000000000000000000000000000000000000000000000000000006001600160a01b031663b62318826040518163ffffffff1660e01b8152600401602060405180830381865afa15801561179b573d6000803e3d6000fd5b505050506040513d601f19601f820116820180604052508101906117bf91906125db565b6040516301fd3f7760e71b81526001600160a01b0385811660048301529192509082169063fe9fbb8090602401602060405180830381865afa158015611809573d6000803e3d6000fd5b505050506040513d601f19601f820116820180604052508101906116d69190612646565b336001600160a01b03167f00000000000000000000000000000000000000000000000000000000000000006001600160a01b0316638da5cb5b6040518163ffffffff1660e01b8152600401602060405180830381865afa158015611895573d6000803e3d6000fd5b505050506040513d601f19601f820116820180604052508101906118b991906125db565b6001600160a01b03161461075d5760405162461bcd60e51b81526004016106c0906125f8565b7f4910fdfa16fed3260ed0e7147f7cc6da11a60208b5b9406d12a635614ffd91435460ff16156119175761191283611cc0565b505050565b826001600160a01b03166352d1902d6040518163ffffffff1660e01b8152600401602060405180830381865afa925050508015611971575060408051601f3d908101601f1916820190925261196e9181019061262d565b60015b6119d45760405162461bcd60e51b815260206004820152602e60248201527f45524331393637557067726164653a206e657720696d706c656d656e7461746960448201526d6f6e206973206e6f74205555505360901b60648201526084016106c0565b60008051602061274a8339815191528114611a435760405162461bcd60e51b815260206004820152602960248201527f45524331393637557067726164653a20756e737570706f727465642070726f786044820152681a58589b195555525160ba1b60648201526084016106c0565b50611912838383611d5c565b6000818310611a5e57816116d6565b5090919050565b602080820151825160408085015181517f5db6ea67062bf5a92c06624857425d79b537112afc6ca7b8695861bfafcc9dae958101959095526001600160a01b0390931690840152606083015260808201526000906107959060a00160405160208183030381529060405280519060200120611d81565b6000806000611aea8585611e1c565b90925090506000816004811115611b0357611b03612663565b148015611b215750856001600160a01b0316826001600160a01b0316145b80610c925750610c92868686611e61565b6000808060001985870985870292508281108382030391505080600003611b6c57838281611b6257611b62612679565b04925050506116d6565b808411611bb35760405162461bcd60e51b81526020600482015260156024820152744d6174683a206d756c446976206f766572666c6f7760581b60448201526064016106c0565b60008486880960026001871981018816978890046003810283188082028403028082028403028082028403028082028403028082028403029081029092039091026000889003889004909101858311909403939093029303949094049190911702949350505050565b60008215611c4a5781611c3060018561259e565b611c3a919061268f565b611c459060016125b1565b6116d6565b50600092915050565b600054610100900460ff16611cbe5760405162461bcd60e51b815260206004820152602b60248201527f496e697469616c697a61626c653a20636f6e7472616374206973206e6f74206960448201526a6e697469616c697a696e6760a81b60648201526084016106c0565b565b6001600160a01b0381163b611d2d5760405162461bcd60e51b815260206004820152602d60248201527f455243313936373a206e657720696d706c656d656e746174696f6e206973206e60448201526c1bdd08184818dbdb9d1c9858dd609a1b60648201526084016106c0565b60008051602061274a83398151915280546001600160a01b0319166001600160a01b0392909216919091179055565b611d6583611f4d565b600082511180611d725750805b15611912576114ee8383611f8d565b6000611ddf604080517f47e79534a245952e8b16893a336b85a3d9ea9fa8c573f3d803afb92a794692186020820152469181019190915230606082015260009060800160405160208183030381529060405280519060200120905090565b60405161190160f01b6020820152602281019190915260428101839052606201604051602081830303815290604052805190602001209050919050565b6000808251604103611e525760208301516040840151606085015160001a611e4687828585611fb2565b94509450505050611e5a565b506000905060025b9250929050565b6000806000856001600160a01b0316631626ba7e60e01b8686604051602401611e8b929190612701565b60408051601f198184030181529181526020820180516001600160e01b03166001600160e01b0319909416939093179092529051611ec9919061271a565b600060405180830381855afa9150503d8060008114611f04576040519150601f19603f3d011682016040523d82523d6000602084013e611f09565b606091505b5091509150818015611f1d57506020815110155b8015610c9257508051630b135d3f60e11b90611f42908301602090810190840161262d565b149695505050505050565b611f5681611cc0565b6040516001600160a01b038216907fbc7cd75a20ee27fd9adebab32041f755214dbc6bffa90cc0225b39da2e5c2d3b90600090a250565b60606116d6838360405180606001604052806027815260200161276a60279139612076565b6000807f7fffffffffffffffffffffffffffffff5d576e7357a4501ddfe92f46681b20a0831115611fe9575060009050600361206d565b6040805160008082526020820180845289905260ff881692820192909252606081018690526080810185905260019060a0016020604051602081039080840390855afa15801561203d573d6000803e3d6000fd5b5050604051601f1901519150506001600160a01b0381166120665760006001925092505061206d565b9150600090505b94509492505050565b6060600080856001600160a01b031685604051612093919061271a565b600060405180830381855af49150503d80600081146120ce576040519150601f19603f3d011682016040523d82523d6000602084013e6120d3565b606091505b5091509150610c92868383876060831561214e578251600003612147576001600160a01b0385163b6121475760405162461bcd60e51b815260206004820152601d60248201527f416464726573733a2063616c6c20746f206e6f6e2d636f6e747261637400000060448201526064016106c0565b5081612158565b6121588383612160565b949350505050565b8151156121705781518083602001fd5b8060405162461bcd60e51b81526004016106c09190612736565b6001600160a01b038116811461075d57600080fd5b6000602082840312156121b157600080fd5b81356116d68161218a565b634e487b7160e01b600052604160045260246000fd5b600082601f8301126121e357600080fd5b813567ffffffffffffffff808211156121fe576121fe6121bc565b604051601f8301601f19908116603f01168101908282118183101715612226576122266121bc565b8160405283815286602085880101111561223f57600080fd5b836020870160208301376000602085830101528094505050505092915050565b6000806040838503121561227257600080fd5b823561227d8161218a565b9150602083013567ffffffffffffffff81111561229957600080fd5b6122a5858286016121d2565b9150509250929050565b600080600080608085870312156122c557600080fd5b84356122d08161218a565b935060208501356122e08161218a565b93969395505050506040820135916060013590565b60006020828403121561230757600080fd5b5035919050565b60006060828403121561232057600080fd5b6040516060810181811067ffffffffffffffff82111715612343576123436121bc565b60405282358152905080602083013561235b8161218a565b6020820152604092830135920191909152919050565b6000806080838503121561238457600080fd5b61238e848461230e565b9150606083013567ffffffffffffffff81111561229957600080fd5b600080604083850312156123bd57600080fd5b50508035926020909101359150565b801515811461075d57600080fd5b600080604083850312156123ed57600080fd5b82356123f88161218a565b91506020830135612408816123cc565b809150509250929050565b60008060006060848603121561242857600080fd5b83356124338161218a565b95602085013595506040909401359392505050565b60008060006060848603121561245d57600080fd5b83356124688161218a565b925060208401356124788161218a565b915060408401356124888161218a565b809150509250925092565b6000806000606084860312156124a857600080fd5b83356124b38161218a565b925060208401356124c38161218a565b929592945050506040919091013590565b6000606082840312156124e657600080fd5b6116d6838361230e565b6020808252602c908201527f46756e6374696f6e206d7573742062652063616c6c6564207468726f7567682060408201526b19195b1959d85d1958d85b1b60a21b606082015260800190565b6020808252602c908201527f46756e6374696f6e206d7573742062652063616c6c6564207468726f7567682060408201526b6163746976652070726f787960a01b606082015260800190565b634e487b7160e01b600052601160045260246000fd5b8181038181111561079557610795612588565b8082018082111561079557610795612588565b808202811582820484141761079557610795612588565b6000602082840312156125ed57600080fd5b81516116d68161218a565b6020808252818101527f4f776e61626c653a2063616c6c6572206973206e6f7420746865206f776e6572604082015260600190565b60006020828403121561263f57600080fd5b5051919050565b60006020828403121561265857600080fd5b81516116d6816123cc565b634e487b7160e01b600052602160045260246000fd5b634e487b7160e01b600052601260045260246000fd5b6000826126ac57634e487b7160e01b600052601260045260246000fd5b500490565b60005b838110156126cc5781810151838201526020016126b4565b50506000910152565b600081518084526126ed8160208601602086016126b1565b601f01601f19169290920160200192915050565b82815260406020820152600061215860408301846126d5565b6000825161272c8184602087016126b1565b9190910192915050565b6020815260006116d660208301846126d556fe360894a13ba1a3210667c828492db98dca3e2076cc3735a920a3ca505d382bbc416464726573733a206c6f772d6c6576656c2064656c65676174652063616c6c206661696c6564a2646970667358221220e4dc5ca9b77ce085f5f617c70d9d9ecf3fd9a5b22d896f353e3c200b5293141964736f6c63430008120033",
  "devdoc": {
    "events": {
      "AdminChanged(address,address)": {
        "details": "Emitted when the admin account has changed."
      },
      "BeaconUpgraded(address)": {
        "details": "Emitted when the beacon is changed."
      },
      "Initialized(uint8)": {
        "details": "Triggered when the contract has been initialized or reinitialized."
      },
      "Upgraded(address)": {
        "details": "Emitted when the implementation is upgraded."
      }
    },
    "kind": "dev",
    "methods": {
      "proxiableUUID()": {
        "details": "Implementation of the ERC1822 {proxiableUUID} function. This returns the storage slot used by the implementation. It is used to validate the implementation's compatibility when performing an upgrade. IMPORTANT: A proxy pointing at a proxiable contract should not be considered proxiable itself, because this risks bricking a proxy that upgrades to it, by delegating to itself until out of gas. Thus it is critical that this function revert if invoked through a proxy. This is guaranteed by the `notDelegated` modifier."
      },
      "upgradeTo(address)": {
        "custom:oz-upgrades-unsafe-allow-reachable": "delegatecall",
        "details": "Upgrade the implementation of the proxy to `newImplementation`. Calls {_authorizeUpgrade}. Emits an {Upgraded} event."
      },
      "upgradeToAndCall(address,bytes)": {
        "custom:oz-upgrades-unsafe-allow-reachable": "delegatecall",
        "details": "Upgrade the implementation of the proxy to `newImplementation`, and subsequently execute the function call encoded in `data`. Calls {_authorizeUpgrade}. Emits an {Upgraded} event."
      }
    },
    "version": 1
  },
  "userdoc": {
    "kind": "user",
    "methods": {
      "getEarnClaimable((uint256,address,uint256))": {
        "notice": "mint"
      },
      "getInitializedVersion()": {
        "notice": "upgrade --- ///"
      },
      "isBlackList(address)": {
        "notice": "black list --- ///"
      }
    },
    "version": 1
  },
  "storageLayout": {
    "storage": [
      {
        "astId": 371,
        "contract": "contracts/Launcher.sol:Launcher",
        "label": "_initialized",
        "offset": 0,
        "slot": "0",
        "type": "t_uint8"
      },
      {
        "astId": 374,
        "contract": "contracts/Launcher.sol:Launcher",
        "label": "_initializing",
        "offset": 1,
        "slot": "0",
        "type": "t_bool"
      },
      {
        "astId": 353,
        "contract": "contracts/Launcher.sol:Launcher",
        "label": "__gap",
        "offset": 0,
        "slot": "1",
        "type": "t_array(t_uint256)50_storage"
      },
      {
        "astId": 668,
        "contract": "contracts/Launcher.sol:Launcher",
        "label": "__gap",
        "offset": 0,
        "slot": "51",
        "type": "t_array(t_uint256)50_storage"
      },
      {
        "astId": 9157,
        "contract": "contracts/Launcher.sol:Launcher",
        "label": "operator",
        "offset": 0,
        "slot": "101",
        "type": "t_address"
      },
      {
        "astId": 9160,
        "contract": "contracts/Launcher.sol:Launcher",
        "label": "mfc",
        "offset": 0,
        "slot": "102",
        "type": "t_contract(IMakeFriendCoin)10429"
      },
      {
        "astId": 9163,
        "contract": "contracts/Launcher.sol:Launcher",
        "label": "acceptedToken",
        "offset": 0,
        "slot": "103",
        "type": "t_contract(IERC20)3856"
      },
      {
        "astId": 9167,
        "contract": "contracts/Launcher.sol:Launcher",
        "label": "blackList",
        "offset": 0,
        "slot": "104",
        "type": "t_mapping(t_address,t_bool)"
      },
      {
        "astId": 9171,
        "contract": "contracts/Launcher.sol:Launcher",
        "label": "share2MultiplyAmount",
        "offset": 0,
        "slot": "105",
        "type": "t_mapping(t_address,t_uint256)"
      },
      {
        "astId": 9175,
        "contract": "contracts/Launcher.sol:Launcher",
        "label": "acceptedShare2Multiply",
        "offset": 0,
        "slot": "106",
        "type": "t_mapping(t_address,t_bool)"
      },
      {
        "astId": 9179,
        "contract": "contracts/Launcher.sol:Launcher",
        "label": "userBuyAmount",
        "offset": 0,
        "slot": "107",
        "type": "t_mapping(t_address,t_uint256)"
      },
      {
        "astId": 9183,
        "contract": "contracts/Launcher.sol:Launcher",
        "label": "userEranAmount",
        "offset": 0,
        "slot": "108",
        "type": "t_mapping(t_uint256,t_uint256)"
      },
      {
        "astId": 9187,
        "contract": "contracts/Launcher.sol:Launcher",
        "label": "userBuyPrice",
        "offset": 0,
        "slot": "109",
        "type": "t_mapping(t_address,t_uint256)"
      },
      {
        "astId": 9189,
        "contract": "contracts/Launcher.sol:Launcher",
        "label": "remainSharePoolAmount",
        "offset": 0,
        "slot": "110",
        "type": "t_uint256"
      },
      {
        "astId": 9191,
        "contract": "contracts/Launcher.sol:Launcher",
        "label": "remainBuyAmount",
        "offset": 0,
        "slot": "111",
        "type": "t_uint256"
      },
      {
        "astId": 9193,
        "contract": "contracts/Launcher.sol:Launcher",
        "label": "maxBuyAmount",
        "offset": 0,
        "slot": "112",
        "type": "t_uint256"
      },
      {
        "astId": 9195,
        "contract": "contracts/Launcher.sol:Launcher",
        "label": "maxEarnAmount",
        "offset": 0,
        "slot": "113",
        "type": "t_uint256"
      }
    ],
    "types": {
      "t_address": {
        "encoding": "inplace",
        "label": "address",
        "numberOfBytes": "20"
      },
      "t_array(t_uint256)50_storage": {
        "base": "t_uint256",
        "encoding": "inplace",
        "label": "uint256[50]",
        "numberOfBytes": "1600"
      },
      "t_bool": {
        "encoding": "inplace",
        "label": "bool",
        "numberOfBytes": "1"
      },
      "t_contract(IERC20)3856": {
        "encoding": "inplace",
        "label": "contract IERC20",
        "numberOfBytes": "20"
      },
      "t_contract(IMakeFriendCoin)10429": {
        "encoding": "inplace",
        "label": "contract IMakeFriendCoin",
        "numberOfBytes": "20"
      },
      "t_mapping(t_address,t_bool)": {
        "encoding": "mapping",
        "key": "t_address",
        "label": "mapping(address => bool)",
        "numberOfBytes": "32",
        "value": "t_bool"
      },
      "t_mapping(t_address,t_uint256)": {
        "encoding": "mapping",
        "key": "t_address",
        "label": "mapping(address => uint256)",
        "numberOfBytes": "32",
        "value": "t_uint256"
      },
      "t_mapping(t_uint256,t_uint256)": {
        "encoding": "mapping",
        "key": "t_uint256",
        "label": "mapping(uint256 => uint256)",
        "numberOfBytes": "32",
        "value": "t_uint256"
      },
      "t_uint256": {
        "encoding": "inplace",
        "label": "uint256",
        "numberOfBytes": "32"
      },
      "t_uint8": {
        "encoding": "inplace",
        "label": "uint8",
        "numberOfBytes": "1"
      }
    }
  }
}